:100000000C942A000C9447000C9447000C94470071
:100010000C9447000C9447000C9447000C94470044
:100020000C9447000C9447000C9447000C94470034
:100030000C9447000C94341F0C94671F0C949A1F67
:100040000C9447000C9447000C9447000C94470014
:100050000C94470011241FBECFE5D8E0DEBFCDBF12
:1000600011E0A0E6B0E0ECE3F0E502C005900D92EF
:10007000AC37B107D9F711E0ACE7B1E001C01D9290
:10008000AA39B107E1F70E94CD1F0C941C280C94EB
:100090000000EF92FF920F931F937B018C0120E0F1
:1000A00030E040E05FE40E94490388238CF0C801FF
:1000B000B70120E030E040E05FE40E94C1010E940F
:1000C000A9039B01AC01205030404040504806C07D
:1000D000C801B7010E94A9039B01AC01B901CA0183
:1000E0001F910F91FF90EF900895A0E0B0E0EBE733
:1000F000F0E00C94E026DC012B01FA019C91923097
:1001000008F439C1EB018881823008F433C194309E
:1001100069F4843009F02FC111969C91119789815F
:10012000981709F428C1A0E5B1E025C1843009F48D
:1001300021C18230A9F4923009F01DC19A01AD01AC
:1001400088E0EA010990AE01E90109929E0181501F
:10015000C1F7E201898111969C918923818308C1AD
:10016000923009F407C112962D903C901397EB0141
:100170008A819B811496AD90BD90CD90DC901797AD
:10018000EC80FD800E811F819101281B390BB90184
:1001900037FF04C066277727621B730B6032710537
:1001A0000CF061C0121613066CF537014801062EDB
:1001B00004C096948794779467940A94D2F721E0C8
:1001C00030E040E050E004C0220F331F441F551FB1
:1001D0006A95D2F721503040404050402E213F21B7
:1001E00040235123211531054105510521F021E01E
:1001F00030E040E050E079018A01E628F72808293C
:1002000019293CC0232BD1F1260E371E350146019A
:10021000062E04C096948794779467940A94D2F734
:1002200021E030E040E050E004C0220F331F441FC3
:10023000551F6A95D2F721503040404050402A2146
:100240003B214C215D21211531054105510521F04E
:1002500021E030E040E050E059016A01A628B728CB
:10026000C828D9280BC0821593052CF01C01AA249C
:10027000BB24650103C0EE24FF24870111969C91E5
:10028000D20111968C91981709F445C0992339F041
:10029000A80197012A193B094C095D0906C0A6016E
:1002A00095012E193F09400B510B57FD08C01182D3
:1002B0003382228224833583468357831DC081E0A5
:1002C00081833382228288279927DC01821B930B4A
:1002D000A40BB50B84839583A683B7830DC0220F2F
:1002E000331F441F551F24833583468357838281E0
:1002F000938101979383828324813581468157813D
:10030000DA01C9010197A109B1098F5F9F4FAF4F72
:10031000BF4328F30BC0918333822282EA0CFB1C7B
:100320000C1D1D1DE482F5820683178383E0808304
:10033000248135814681578157FF1AC0C901AA27F8
:1003400097FDA095BA2F81709070A070B0705695EF
:10035000479537952795822B932BA42BB52B848318
:100360009583A683B7838281938101969383828349
:10037000DF0101C0D201CD01CDB7DEB7E2E10C94BF
:10038000FC26A0E2B0E0E7ECF1E00C94EC266983F7
:100390007A838B839C832D833E834F835887E9E048
:1003A000EE2EF12CEC0EFD1ECE010196B7010E943F
:1003B000D2048E010F5E1F4FCE010596B8010E9438
:1003C000D2048A8991E089278A8BC701B801AE01DE
:1003D000475E5F4F0E9475000E94FD03A096E6E015
:1003E0000C940827A0E2B0E0E8EFF1E00C94EC26D2
:1003F00069837A838B839C832D833E834F835887C5
:10040000F9E0EF2EF12CEC0EFD1ECE010196B701A6
:100410000E94D2048E010F5E1F4FCE010596B801D7
:100420000E94D204C701B801AE01475E5F4F0E942F
:1004300075000E94FD03A096E6E00C940827A0E258
:10044000B0E0E5E2F2E00C94E02669837A838B83E6
:100450009C832D833E834F835887CE010196BE0136
:10046000675F7F4F0E94D204CE010596BE016F5E8A
:100470007F4F0E94D2049985923088F0898982301A
:10048000C8F0943019F4823051F404C0843029F457
:10049000923081F480E591E0C6C0923049F420E0CA
:1004A0009A858A89981321E02A87CE010996BBC0D4
:1004B000823049F420E09A858A89981321E02A8BBA
:1004C000CE014196B0C02D843E844F8458886D88FB
:1004D0007E888F88988CEE24FF248701AA24BB2471
:1004E000650140E050E060E070E0E0E0F0E0C10174
:1004F00081709070892BE9F0E60CF71C081D191D1E
:100500009A01AB012A0D3B1D4C1D5D1D80E090E062
:10051000A0E0B0E0E614F7040805190520F481E036
:1005200090E0A0E0B0E0BA01A901480F591F6A1F8E
:100530007B1FAA0CBB1CCC1CDD1C97FE08C081E0F5
:1005400090E0A0E0B0E0A82AB92ACA2ADB2A3196B6
:10055000E032F10549F0660C771C881C991C569412
:10056000479437942794C3CFFA85EA892B893C892D
:100570008B859C85280F391F2E5F3F4F17C0CA01FE
:1005800081709070892B61F016950795F794E79428
:1005900080E090E0A0E0B0E8E82AF92A0A2B1B2BC3
:1005A00076956795579547952F5F3F4F77FDE7CF36
:1005B0000CC0440F551F661F771F17FD4160EE0CDE
:1005C000FF1C001F111F21503040403090E05907A0
:1005D00090E0690790E4790760F32B8F3C8FDB0193
:1005E000CA018F779070A070B07080349105A1051A
:1005F000B10561F447FD0AC0E114F10401051105DC
:1006000029F0405C5F4F6F4F7F4F40781A8EFE1786
:1006100011F081E08A8F4D8F5E8F6F8F78A383E01A
:10062000898FCE0149960E94FD03A096E2E10C94C9
:10063000FC26A8E1B0E0EFE1F3E00C94EC2669833E
:100640007A838B839C832D833E834F83588789E0F5
:10065000E82EF12CEC0EFD1ECE010196B7010E9492
:10066000D2048E010F5E1F4FCE010596B8010E9485
:10067000D2048985823040F08989823028F0C70110
:10068000B8010E944A0501C08FEF6896E6E00C941D
:100690000827A8E1B0E0EFE4F3E00C94EC266983CE
:1006A0007A838B839C832D833E834F83588789E095
:1006B000E82EF12CEC0EFD1ECE010196B7010E9432
:1006C000D2048E010F5E1F4FCE010596B8010E9425
:1006D000D2048985823040F08989823028F0C701B0
:1006E000B8010E944A0501C08FEF6896E6E00C94BD
:1006F0000827A8E1B0E0EFE7F3E00C94EC2669836B
:100700007A838B839C832D833E834F83588789E034
:10071000E82EF12CEC0EFD1ECE010196B7010E94D1
:10072000D2048E010F5E1F4FCE010596B8010E94C4
:10073000D2048985823040F08989823028F0C7014F
:10074000B8010E944A0501C081E06896E6E00C9479
:100750000827ACE0B0E0EFEAF3E00C94F026698300
:100760007A838B839C83CE010196BE016B5F7F4FA2
:100770000E94D2048D81823061F1823050F1843048
:1007800021F48E81882351F12EC02F81388537FDC9
:1007900020C06E812F3131051CF06623F9F023C093
:1007A0008EE190E0821B930B29853A854B855C8511
:1007B00004C056954795379527958A95D2F76623B5
:1007C000B1F050954095309521953F4F4F4F5F4F79
:1007D0000EC020E030E040E050E009C02FEF3FEFD6
:1007E0004FEF5FE704C020E030E040E050E8B9019F
:1007F000CA012C96E2E00C940C27DF92EF92FF9254
:100800000F931F93FC01E480F58006811781D1804E
:100810008081823048F480E090E0A0E1B0E0E82AF6
:10082000F92A0A2B1B2BA5C0843009F49FC0823003
:1008300021F4EE24FF24870105C0E114F104010531
:10084000110519F4E0E0F0E096C0628173819FEF3A
:10085000623879070CF05BC022E83FEF261B370BAC
:100860002A3131052CF020E030E040E050E02AC091
:10087000B801A701022E04C0769567955795479554
:100880000A94D2F781E090E0A0E0B0E004C0880FC5
:10089000991FAA1FBB1F2A95D2F70197A109B10979
:1008A0008E219F21A023B1230097A105B10521F03E
:1008B00081E090E0A0E0B0E09A01AB01282B392B59
:1008C0004A2B5B2BDA01C9018F779070A070B07052
:1008D00080349105A105B10539F427FF09C0205CDA
:1008E0003F4F4F4F5F4F04C0215C3F4F4F4F5F4F13
:1008F000E0E0F0E02030A0E03A07A0E04A07A0E402
:100900005A0710F0E1E0F0E079018A0127C0603871
:10091000710564F5FB01E158FF4FD801C7018F77DE
:100920009070A070B07080349105A105B10539F4C4
:10093000E7FE0DC080E490E0A0E0B0E004C08FE3EB
:1009400090E0A0E0B0E0E80EF91E0A1F1B1F17FFA1
:1009500005C016950795F794E794319687E01695AC
:100960000795F794E7948A95D1F705C0EE24FF2404
:100970008701EFEFF0E06E2F679566276795902F60
:100980009F77D794DD24D7948E2F8695492F462BB9
:10099000582F5D29B701CA011F910F91FF90EF9069
:1009A000DF900895FC01DB01408151812281622F9B
:1009B0006F7770E0221F2227221F9381892F880FD3
:1009C000822B282F30E0991F9927991F11969C930D
:1009D000119721153105A9F54115510561057105DD
:1009E00011F482E037C082E89FEF13969C938E93B8
:1009F00012979A01AB0167E0220F331F441F551F66
:100A00006A95D1F783E08C930DC0220F331F441FEA
:100A1000551F12968D919C911397019713969C9355
:100A20008E931297203080E0380780E0480780E4FA
:100A3000580758F314962D933D934D935C93179755
:100A400008952F3F310579F4411551056105710570
:100A500019F484E08C93089564FF03C081E08C93C3
:100A600012C01C9210C02F57304013963C932E9307
:100A7000129783E08C9387E0440F551F661F771F02
:100A80008A95D1F7706414964D935D936D937C9322
:100A9000179708951F93DC01FB019C91923008F495
:100AA00047C08081823008F443C0943051F41196DD
:100AB0001C91843099F58181682F70E0611B710968
:100AC0003FC0843021F0923031F48230B9F181811D
:100AD000882389F12DC011961C9111978230F1F075
:100AE00081811817D9F412962D913C911397828128
:100AF00093818217930794F028173907BCF0149656
:100B00008D919D910D90BC91A02D248135814681C0
:100B10005781281739074A075B0718F4112341F05A
:100B20000AC082179307A407B50740F4112319F0F0
:100B300061E070E005C06FEF7FEF02C060E070E041
:100B4000CB011F910895DF93CF93CDB7DEB72D97DB
:100B50000FB6F894DEBF0FBECDBF89836A834B8387
:100B60008981843008F009C18A81883008F005C184
:100B70008B81823008F001C18981282F30E03D87C8
:100B80002C878C859D858130910509F44FC02C857B
:100B90003D85223031052CF48C859D85009771F0C0
:100BA000ECC02C853D852230310509F477C08C8559
:100BB0009D858330910509F4A9C0DFC08B81282F62
:100BC00030E03B872A878A859B85009731F02A850C
:100BD0003B8521303105B1F0D0C0AAE3B0E0EAE3B3
:100BE000F0E08081482F8A81282F30E081E090E07A
:100BF000022E02C0880F991F0A94E2F78095842381
:100C00008C93BBC0AAE3B0E0EAE3F0E08081482F18
:100C10008A81282F30E081E090E0022E02C0880F08
:100C2000991F0A94E2F7842B8C93A7C08B81282FFD
:100C300030E03987288788859985009731F02885A5
:100C4000398521303105B1F098C0A7E3B0E0E7E382
:100C5000F0E08081482F8A81282F30E081E090E009
:100C6000022E02C0880F991F0A94E2F78095842310
:100C70008C9383C0A7E3B0E0E7E3F0E08081482FE6
:100C80008A81282F30E081E090E0022E02C0880F98
:100C9000991F0A94E2F7842B8C936FC08B81282FC5
:100CA00030E03F832E838E819F81009731F02E812B
:100CB0003F8121303105B1F060C0A4E3B0E0E4E34E
:100CC000F0E08081482F8A81282F30E081E090E099
:100CD000022E02C0880F991F0A94E2F780958423A0
:100CE0008C934BC0A4E3B0E0E4E3F0E08081482FB4
:100CF0008A81282F30E081E090E0022E02C0880F28
:100D0000991F0A94E2F7842B8C9337C08B81282F8C
:100D100030E03D832C838C819D81009731F02C81C4
:100D20003D8121303105B1F028C0A1E3B0E0E1E31D
:100D3000F0E08081482F8A81282F30E081E090E028
:100D4000022E02C0880F991F0A94E2F7809584232F
:100D50008C9313C0A1E3B0E0E1E3F0E08081482F81
:100D60008A81282F30E081E090E0022E02C0880FB7
:100D7000991F0A94E2F7842B8C932D960FB6F89462
:100D8000DEBF0FBECDBFCF91DF910895DF93CF932C
:100D9000CDB7DEB72D970FB6F894DEBF0FBECDBF2F
:100DA00089836A834B838981843008F009C18A81F1
:100DB000883008F005C18B81823008F001C189813B
:100DC000282F30E03D872C878C859D8581309105CB
:100DD00009F44FC02C853D85223031052CF48C85DB
:100DE0009D85009771F0ECC02C853D852230310542
:100DF00009F477C08C859D858330910509F4A9C0DD
:100E0000DFC08B81282F30E03B872A878A859B852E
:100E1000009731F02A853B8521303105B1F0D0C0F3
:100E2000ABE3B0E0EBE3F0E08081482F8A81282F2C
:100E300030E081E090E0022E02C0880F991F0A94F2
:100E4000E2F7809584238C93BBC0ABE3B0E0EBE387
:100E5000F0E08081482F8A81282F30E081E090E007
:100E6000022E02C0880F991F0A94E2F7842B8C93FC
:100E7000A7C08B81282F30E03987288788859985FE
:100E8000009731F02885398521303105B1F098C0BF
:100E9000A8E3B0E0E8E3F0E08081482F8A81282FC2
:100EA00030E081E090E0022E02C0880F991F0A9482
:100EB000E2F7809584238C9383C0A8E3B0E0E8E355
:100EC000F0E08081482F8A81282F30E081E090E097
:100ED000022E02C0880F991F0A94E2F7842B8C938C
:100EE0006FC08B81282F30E03F832E838E819F81BE
:100EF000009731F02E813F8121303105B1F060C083
:100F0000A5E3B0E0E5E3F0E08081482F8A81282F57
:100F100030E081E090E0022E02C0880F991F0A9411
:100F2000E2F7809584238C934BC0A5E3B0E0E5E322
:100F3000F0E08081482F8A81282F30E081E090E026
:100F4000022E02C0880F991F0A94E2F7842B8C931B
:100F500037C08B81282F30E03D832C838C819D818D
:100F6000009731F02C813D8121303105B1F028C04E
:100F7000A2E3B0E0E2E3F0E08081482F8A81282FED
:100F800030E081E090E0022E02C0880F991F0A94A1
:100F9000E2F7809584238C9313C0A2E3B0E0E2E3F0
:100FA000F0E08081482F8A81282F30E081E090E0B6
:100FB000022E02C0880F991F0A94E2F7842B8C93AB
:100FC0002D960FB6F894DEBF0FBECDBFCF91DF9147
:100FD0000895DF93CF9300D000D00F92CDB7DEB746
:100FE0008A836B838A81843008F06BC08B81883060
:100FF00008F067C08A81282F30E03D832C834C8124
:101000005D814130510541F18C819D818230910596
:1010100034F42C813D812115310561F052C04C81A1
:101020005D814230510551F18C819D818330910564
:10103000B9F147C0E9E3F0E08081282F30E08B81EF
:10104000882F90E0A90102C0559547958A95E2F74F
:10105000CA018170898335C0E6E3F0E08081282FE2
:1010600030E08B81882F90E0A90102C0559547950B
:101070008A95E2F7CA018170898323C0E3E3F0E037
:101080008081282F30E08B81882F90E0A90102C059
:10109000559547958A95E2F7CA018170898311C0F9
:1010A000E0E3F0E08081282F30E08B81882F90E012
:1010B000A90102C0559547958A95E2F7CA0181704A
:1010C000898389810F900F900F900F900F90CF918F
:1010D000DF910895DF93CF9300D000D0CDB7DEB776
:1010E00089836A838981843008F072C08A8188305C
:1010F00008F06EC08981282F30E03C832B838B81E0
:101100009C818130910549F12B813C812230310550
:101110002CF48B819C81009761F05AC02B813C811B
:101120002230310571F18B819C8183309105E9F189
:101130004FC0ABE3B0E0EBE3F0E08081482F8A8161
:10114000282F30E081E090E0022E02C0880F991F26
:101150000A94E2F784278C933BC0A8E3B0E0E8E36D
:10116000F0E08081482F8A81282F30E081E090E0F4
:10117000022E02C0880F991F0A94E2F784278C93ED
:1011800027C0A5E3B0E0E5E3F0E08081482F8A8145
:10119000282F30E081E090E0022E02C0880F991FD6
:1011A0000A94E2F784278C9313C0A2E3B0E0E2E351
:1011B000F0E08081482F8A81282F30E081E090E0A4
:1011C000022E02C0880F991F0A94E2F784278C939D
:1011D0000F900F900F900F90CF91DF910895DF93B4
:1011E000CF9300D000D0CDB7DEB789836A838981E1
:1011F000843090F58981282F30E03C832B838B81CC
:101200009C8181309105D1F02B813C8122303105C8
:101210002CF48B819C81009761F01EC02B813C8156
:101220002230310581F08B819C818330910581F0E2
:1012300013C0EAE3F0E08A8180830EC0E7E3F0E0C8
:101240008A81808309C0E4E3F0E08A81808304C05E
:10125000E1E3F0E08A8180830F900F900F900F9070
:10126000CF91DF910895DF93CF9300D000D0CDB719
:10127000DEB789836A838981843090F58981282F3C
:1012800030E03C832B838B819C8181309105D1F0B0
:101290002B813C81223031052CF48B819C8100977D
:1012A00061F01EC02B813C812230310581F08B81A1
:1012B0009C818330910581F013C0EBE3F0E08A81DB
:1012C00080830EC0E8E3F0E08A81808309C0E5E313
:1012D000F0E08A81808304C0E2E3F0E08A818083C9
:1012E0000F900F900F900F90CF91DF910895DF93A3
:1012F000CF93CDB7DEB7EAE3F0E08CEF8083E7E38E
:10130000F0E089E78083E4E3F0E08FEF8083E1E3BE
:10131000F0E082ED8083EBE3F0E083E08083E8E3BC
:10132000F0E01082E5E3F0E01082E2E3F0E08CE030
:101330008083CF91DF910895DF93CF93CDB7DEB750
:101340002F970FB6F894DEBF0FBECDBF8F8780E01A
:1013500067E040E00E94C60680E066E040E00E9450
:10136000C60682E06F850E94330980E065E041E0B7
:101370000E94C60680E090E0A0E0B0E48B879C87E6
:10138000AD87BE876B857C858D859E8520E030E0AE
:101390004AEF54E40E941F02DC01CB018F8398873F
:1013A000A987BA876F81788589859A8520E030E0A2
:1013B00040E85FE30E94790388232CF481E090E009
:1013C0009E838D833FC06F81788589859A8520E0D3
:1013D0003FEF4FE757E40E94190318164CF56B8551
:1013E0007C858D859E8520E030E040E251E40E94BE
:1013F0001F02DC01CB01BC01CD010E944900DC01D0
:10140000CB019E838D830FC088EC90E09C838B83FF
:101410008B819C810197F1F79C838B838D819E81C9
:1014200001979E838D838D819E81009769F714C0FB
:101430006F81788589859A850E944900DC01CB01FE
:101440009E838D838D819E819A83898389819A81F0
:101450000197F1F79A83898380E065E040E00E947C
:10146000C6062F960FB6F894DEBF0FBECDBFCF9144
:10147000DF910895DF93CF93CDB7DEB72F970FB6E7
:10148000F894DEBF0FBECDBF8F8780E067E041E0FC
:101490000E94C60680E066E040E00E94C60682E048
:1014A0006F850E94330980E065E041E00E94C60636
:1014B00080E090E0A0E0B0E48B879C87AD87BE879A
:1014C0006B857C858D859E8520E030E04AEF54E475
:1014D0000E941F02DC01CB018F839887A987BA87FE
:1014E0006F81788589859A8520E030E040E85FE368
:1014F0000E94790388232CF481E090E09E838D8301
:101500003FC06F81788589859A8520E03FEF4FE75E
:1015100057E40E94190318164CF56B857C858D8560
:101520009E8520E030E040E251E40E941F02DC0191
:10153000CB01BC01CD010E944900DC01CB019E839F
:101540008D830FC088EC90E09C838B838B819C8182
:101550000197F1F79C838B838D819E8101979E83F8
:101560008D838D819E81009769F714C06F81788586
:1015700089859A850E944900DC01CB019E838D8379
:101580008D819E819A83898389819A810197F1F760
:101590009A83898380E065E040E00E94C6062F962A
:1015A0000FB6F894DEBF0FBECDBFCF91DF91089587
:1015B0000F931F93DF93CF93CDB7DEB7C654D040C0
:1015C0000FB6F894DEBF0FBECDBFFE01ED5BFF4F3F
:1015D00080E090E0A0E2B2E480839183A283B383B1
:1015E0008E01015C1F4FFE01ED5BFF4F6081718139
:1015F0008281938120E030E04AEF54E40E941F0290
:10160000DC01CB01F80180839183A283B383FE01C7
:10161000FF96608171818281938120E030E040E813
:101620005FE30E94790388232CF481E090E09EAF71
:101630008DAF46C0FE01FF966081718182819381EA
:1016400020E03FEF4FE757E40E941903181664F5B6
:10165000FE01ED5BFF4F608171818281938120E00B
:1016600030E040E251E40E941F02DC01CB01BC01EA
:10167000CD010E944900DC01CB019EAF8DAF0FC0B0
:1016800088EC90E09CAF8BAF8BAD9CAD0197F1F7F0
:101690009CAF8BAF8DAD9EAD01979EAF8DAF8DADE5
:1016A0009EAD009769F716C0FE01FF9660817181BB
:1016B000828193810E944900DC01CB019EAF8DAFF6
:1016C0008DAD9EAD9AAF89AF89AD9AAD0197F1F717
:1016D0009AAF89AF88E30E949C0980E090E0A0E87F
:1016E000BFE38DAB9EABAFABB8AF6DA97EA98FA9A1
:1016F00098AD20E030E04AEF54E40E941F02DC0184
:10170000CB0189AB9AABABABBCAB69A97AA98BA96E
:101710009CA920E030E040E85FE30E947903882341
:101720002CF481E090E098AB8FA73FC069A97AA91B
:101730008BA99CA920E03FEF4FE757E40E941903D3
:1017400018164CF56DA97EA98FA998AD20E030E060
:1017500040E251E40E941F02DC01CB01BC01CD013B
:101760000E944900DC01CB0198AB8FA70FC088EC29
:1017700090E09EA78DA78DA59EA50197F1F79EA746
:101780008DA78FA598A9019798AB8FA78FA598A92A
:10179000009769F714C069A97AA98BA99CA90E942E
:1017A0004900DC01CB0198AB8FA78FA598A99CA716
:1017B0008BA78BA59CA50197F1F79CA78BA78EE023
:1017C0000E949C0980E090E0A0E8BFE38FA398A767
:1017D000A9A7BAA76FA178A589A59AA520E030E0AE
:1017E0004AEF54E40E941F02DC01CB018BA39CA3AF
:1017F000ADA3BEA36BA17CA18DA19EA120E030E092
:1018000040E85FE30E94790388232CF481E090E0B4
:101810009AA389A33FC06BA17CA18DA19EA120E0CA
:101820003FEF4FE757E40E94190318164CF56FA1DC
:1018300078A589A59AA520E030E040E251E40E9415
:101840001F02DC01CB01BC01CD010E944900DC017B
:10185000CB019AA389A30FC088EC90E098A38F8F47
:101860008F8D98A10197F1F798A38F8F89A19AA1E5
:1018700001979AA389A389A19AA1009769F714C037
:101880006BA17CA18DA19EA10E944900DC01CB012E
:101890009AA389A389A19AA19E8F8D8F8D8D9E8DEC
:1018A0000197F1F79E8F8D8F81E00E949C0980E067
:1018B00090E0A0E0B0E4898F9A8FAB8FBC8F698DE8
:1018C0007A8D8B8D9C8D20E030E04AEF54E40E94AD
:1018D0001F02DC01CB018D8B9E8BAF8BB88F6D8986
:1018E0007E898F89988D20E030E040E85FE30E9498
:1018F000790388232CF481E090E09C8B8B8B3FC094
:101900006D897E898F89988D20E03FEF4FE757E4FE
:101910000E94190318164CF5698D7A8D8B8D9C8D5C
:1019200020E030E040E251E40E941F02DC01CB01E4
:10193000BC01CD010E944900DC01CB019C8B8B8B4B
:101940000FC088EC90E09A8B898B89899A890197DE
:10195000F1F79A8B898B8B899C8901979C8B8B8B58
:101960008B899C89009769F714C06D897E898F895E
:10197000988D0E944900DC01CB019C8B8B8B8B895D
:101980009C89988B8F878F8598890197F1F7988B21
:101990008F8786E00E949C0980E090E0A0E8BFE38A
:1019A0008B879C87AD87BE876B857C858D859E8563
:1019B00020E030E04AEF54E40E941F02DC01CB013A
:1019C0008F839887A987BA876F81788589859A855B
:1019D00020E030E040E85FE30E94790388232CF4A4
:1019E00081E090E09E838D833FC06F8178858985FB
:1019F0009A8520E03FEF4FE757E40E94190318163D
:101A00004CF56B857C858D859E8520E030E040E23D
:101A100051E40E941F02DC01CB01BC01CD010E94F8
:101A20004900DC01CB019E838D830FC088EC90E0E0
:101A30009C838B838B819C810197F1F79C838B83A3
:101A40008D819E8101979E838D838D819E810097DC
:101A500069F714C06F81788589859A850E9449004D
:101A6000DC01CB019E838D838D819E819A83898346
:101A700089819A810197F1F79A838983CA5BDF4F45
:101A80000FB6F894DEBF0FBECDBFCF91DF911F918F
:101A90000F910895DF93CF93CDB7DEB72E970FB692
:101AA000F894DEBF0FBECDBF81E00E949C0980E0AC
:101AB00090E0A0E0B0E48B879C87AD87BE876B8504
:101AC0007C858D859E8520E030E04AEF54E40E94BD
:101AD0001F02DC01CB018F839887A987BA876F81AA
:101AE000788589859A8520E030E040E85FE30E94B0
:101AF000790388232CF481E090E09E838D833FC09E
:101B00006F81788589859A8520E03FEF4FE757E41C
:101B10000E94190318164CF56B857C858D859E8572
:101B200020E030E040E251E40E941F02DC01CB01E2
:101B3000BC01CD010E944900DC01CB019E838D8355
:101B40000FC088EC90E09C838B838B819C810197F4
:101B5000F1F79C838B838D819E8101979E838D837A
:101B60008D819E81009769F714C06F817885898582
:101B70009A850E944900DC01CB019E838D838D8173
:101B80009E819A83898389819A810197F1F79A834B
:101B900089832E960FB6F894DEBF0FBECDBFCF91CE
:101BA000DF910895DF93CF9300D0CDB7DEB79A834E
:101BB00089830BC0E981FA81208189819A8101960C
:101BC0009A838983822F0E943A0AE981FA8180816F
:101BD000882381F70F900F90CF91DF910895DF93C5
:101BE000CF9300D000D0CDB7DEB789836A838981D7
:101BF000282F30E03C832B838B819C8181309105A1
:101C000031F02B813C812230310531F009C08A81CD
:101C100081580E949C0904C08A8181540E949C09B9
:101C20000F900F900F900F90CF91DF910895DF9359
:101C3000CF9300D000D0CDB7DEB79A8389836B8372
:101C40004C830E944A0D8B816C810E94EF0D89812B
:101C50009A810E94D20D0F900F900F900F90CF910C
:101C6000DF910895DF93CF93CDB7DEB780E064E0D6
:101C700041E00E94C606CF91DF910895DF93CF9394
:101C8000CDB7DEB780E064E040E00E94C606CF91A9
:101C9000DF910895DF93CF93CDB7DEB780E064E0A6
:101CA0000E946A08CF91DF910895DF93CF93CDB75B
:101CB000DEB780E062E041E00E94C606CF91DF918E
:101CC0000895DF93CF93CDB7DEB780E062E040E0C8
:101CD0000E94C606CF91DF910895DF93CF93CDB7D1
:101CE000DEB780E062E00E946A08CF91DF9108953C
:101CF000DF93CF93CDB7DEB780E063E041E00E9491
:101D0000C606CF91DF910895DF93CF93CDB7DEB7AD
:101D100080E063E040E00E94C606CF91DF91089525
:101D2000DF93CF93CDB7DEB7E8970FB6F894DEBF59
:101D30000FBECDBF81E063E041E00E94C60681E0B6
:101D400064E040E00E94C60681E065E040E00E9459
:101D5000C60681E066E040E00E94C60680E090E0B2
:101D6000A0E0B0E48DAB9EABAFABB8AF6DA97EA9E0
:101D70008FA998AD20E030E04AEF54E40E941F02A2
:101D8000DC01CB0189AB9AABABABBCAB69A97AA93F
:101D90008BA99CA920E030E040E85FE30E94790332
:101DA00088232CF481E090E098AB8FA73FC069A90D
:101DB0007AA98BA99CA920E03FEF4FE757E40E9446
:101DC000190318164CF56DA97EA98FA998AD20E0CE
:101DD00030E040E251E40E941F02DC01CB01BC0173
:101DE000CD010E944900DC01CB0198AB8FA70FC049
:101DF00088EC90E09EA78DA78DA59EA50197F1F791
:101E00009EA78DA78FA598A9019798AB8FA78FA59F
:101E100098A9009769F714C069A97AA98BA99CA908
:101E20000E944900DC01CB0198AB8FA78FA598A930
:101E30009CA78BA78BA59CA50197F1F79CA78BA7C7
:101E400081E063E040E00E94C60681E064E041E09A
:101E50000E94C60681E065E040E00E94C60681E07F
:101E600066E040E00E94C60680E090E0A0E0B0E4BA
:101E70008FA398A7A9A7BAA76FA178A589A59AA5A6
:101E800020E030E04AEF54E40E941F02DC01CB0165
:101E90008BA39CA3ADA3BEA36BA17CA18DA19EA18E
:101EA00020E030E040E85FE30E94790388232CF4CF
:101EB00081E090E09AA389A33FC06BA17CA18DA192
:101EC0009EA120E03FEF4FE757E40E941903181648
:101ED0004CF56FA178A589A59AA520E030E040E2F5
:101EE00051E40E941F02DC01CB01BC01CD010E9424
:101EF0004900DC01CB019AA389A30FC088EC90E0D4
:101F000098A38F8F8F8D98A10197F1F798A38F8F4A
:101F100089A19AA101979AA389A389A19AA100975F
:101F200069F714C06BA17CA18DA19EA10E944900FC
:101F3000DC01CB019AA389A389A19AA19E8F8D8FE1
:101F40008D8D9E8D0197F1F79E8F8D8F81E063E0DF
:101F500040E00E94C60681E064E040E00E94C606C0
:101F600081E065E041E00E94C60681E066E040E075
:101F70000E94C60680E090E0A0E0B0E4898F9A8FCE
:101F8000AB8FBC8F698D7A8D8B8D9C8D20E030E07E
:101F90004AEF54E40E941F02DC01CB018D8B9E8B23
:101FA000AF8BB88F6D897E898F89988D20E030E066
:101FB00040E85FE30E94790388232CF481E090E0FD
:101FC0009C8B8B8B3FC06D897E898F89988D20E09B
:101FD0003FEF4FE757E40E94190318164CF5698D3F
:101FE0007A8D8B8D9C8D20E030E040E251E40E94A0
:101FF0001F02DC01CB01BC01CD010E944900DC01C4
:10200000CB019C8B8B8B0FC088EC90E09A8B898BDB
:1020100089899A890197F1F79A8B898B8B899C8999
:1020200001979C8B8B8B8B899C89009769F714C0D7
:102030006D897E898F89988D0E944900DC01CB01D2
:102040009C8B8B8B8B899C89988B8F878F859889AC
:102050000197F1F7988B8F8781E063E040E00E9461
:10206000C60681E064E040E00E94C60681E065E0CB
:1020700040E00E94C60681E066E041E00E94C6069C
:1020800080E090E0A0E0B0E48B879C87AD87BE87BE
:102090006B857C858D859E8520E030E04AEF54E499
:1020A0000E941F02DC01CB018F839887A987BA8722
:1020B0006F81788589859A8520E030E040E85FE38C
:1020C0000E94790388232CF481E090E09E838D8325
:1020D0003FC06F81788589859A8520E03FEF4FE783
:1020E00057E40E94190318164CF56B857C858D8585
:1020F0009E8520E030E040E251E40E941F02DC01B6
:10210000CB01BC01CD010E944900DC01CB019E83C3
:102110008D830FC088EC90E09C838B838B819C81A6
:102120000197F1F79C838B838D819E8101979E831C
:102130008D838D819E81009769F714C06F817885AA
:1021400089859A850E944900DC01CB019E838D839D
:102150008D819E819A83898389819A810197F1F784
:102160009A838983E8960FB6F894DEBF0FBECDBF81
:10217000CF91DF910895DF93CF93CDB7DEB7E89786
:102180000FB6F894DEBF0FBECDBF81E063E040E044
:102190000E94C60681E064E040E00E94C60681E03D
:1021A00065E040E00E94C60681E066E041E00E94F2
:1021B000C60680E090E0A0E0B0E48DAB9EABAFAB94
:1021C000B8AF6DA97EA98FA998AD20E030E04AEFA5
:1021D00054E40E941F02DC01CB0189AB9AABABAB8C
:1021E000BCAB69A97AA98BA99CA920E030E040E8A2
:1021F0005FE30E94790388232CF481E090E098ABA0
:102200008FA73FC069A97AA98BA99CA920E03FEFBD
:102210004FE757E40E94190318164CF56DA97EA9E3
:102220008FA998AD20E030E040E251E40E941F0207
:10223000DC01CB01BC01CD010E944900DC01CB01D6
:1022400098AB8FA70FC088EC90E09EA78DA78DA5B7
:102250009EA50197F1F79EA78DA78FA598A9019735
:1022600098AB8FA78FA598A9009769F714C069A9A3
:102270007AA98BA99CA90E944900DC01CB0198ABEB
:102280008FA78FA598A99CA78BA78BA59CA5019725
:10229000F1F79CA78BA781E063E040E00E94C606AF
:1022A00081E064E040E00E94C60681E065E041E034
:1022B0000E94C60681E066E040E00E94C60680E01B
:1022C00090E0A0E0B0E48FA398A7A9A7BAA76FA158
:1022D00078A589A59AA520E030E04AEF54E40E9451
:1022E0001F02DC01CB018BA39CA3ADA3BEA36BA1FA
:1022F0007CA18DA19EA120E030E040E85FE30E9438
:10230000790388232CF481E090E09AA389A33FC04D
:102310006BA17CA18DA19EA120E03FEF4FE757E488
:102320000E94190318164CF56FA178A589A59AA5E6
:1023300020E030E040E251E40E941F02DC01CB01CA
:10234000BC01CD010E944900DC01CB019AA389A305
:102350000FC088EC90E098A38F8F8F8D98A1019784
:10236000F1F798A38F8F89A19AA101979AA389A3C6
:1023700089A19AA1009769F714C06BA17CA18DA1D6
:102380009EA10E944900DC01CB019AA389A389A1E7
:102390009AA19E8F8D8F8D8D9E8D0197F1F79E8FC7
:1023A0008D8F81E063E040E00E94C60681E064E03A
:1023B00041E00E94C60681E065E040E00E94C6065A
:1023C00081E066E040E00E94C60680E090E0A0E088
:1023D000B0E4898F9A8FAB8FBC8F698D7A8D8B8D8E
:1023E0009C8D20E030E04AEF54E40E941F02DC01A3
:1023F000CB018D8B9E8BAF8BB88F6D897E898F893A
:10240000988D20E030E040E85FE30E947903882364
:102410002CF481E090E09C8B8B8B3FC06D897E8992
:102420008F89988D20E03FEF4FE757E40E94190312
:1024300018164CF5698D7A8D8B8D9C8D20E030E0DF
:1024400040E251E40E941F02DC01CB01BC01CD013E
:102450000E944900DC01CB019C8B8B8B0FC088EC68
:1024600090E09A8B898B89899A890197F1F79A8BE9
:10247000898B8B899C8901979C8B8B8B8B899C8901
:10248000009769F714C06D897E898F89988D0E94A5
:102490004900DC01CB019C8B8B8B8B899C89988BB1
:1024A0008F878F8598890197F1F7988B8F8781E0C7
:1024B00063E041E00E94C60681E064E040E00E94E3
:1024C000C60681E065E040E00E94C60681E066E065
:1024D00040E00E94C60680E090E0A0E0B0E48B8778
:1024E0009C87AD87BE876B857C858D859E8520E02A
:1024F00030E04AEF54E40E941F02DC01CB018F83DD
:102500009887A987BA876F81788589859A8520E021
:1025100030E040E85FE30E94790388232CF481E0F7
:1025200090E09E838D833FC06F81788589859A85F1
:1025300020E03FEF4FE757E40E94190318164CF5CF
:102540006B857C858D859E8520E030E040E251E4FE
:102550000E941F02DC01CB01BC01CD010E94490099
:10256000DC01CB019E838D830FC088EC90E09C83BF
:102570008B838B819C810197F1F79C838B838D8169
:102580009E8101979E838D838D819E81009769F73F
:1025900014C06F81788589859A850E944900DC0185
:1025A000CB019E838D838D819E819A8389838981CE
:1025B0009A810197F1F79A838983E8960FB6F89488
:1025C000DEBF0FBECDBFCF91DF9108950F931F9354
:1025D000DF93CF93CDB7DEB7C057D0400FB6F89496
:1025E000DEBF0FBECDBF81E063E041E00E94C606C2
:1025F00081E064E040E00E94C60681E065E040E0E2
:102600000E94C60681E066E041E00E94C606FE0127
:10261000E359FF4F80E090E0A0E0B0E48083918335
:10262000A283B3838E0107591F4FFE01E359FF4F69
:10263000608171818281938120E030E04AEF54E42F
:102640000E941F02DC01CB01F80180839183A283E9
:10265000B383FE01E759FF4F6081718182819381CD
:1026600020E030E040E85FE30E947903882344F4EF
:10267000FE01E959FF4F81E090E09183808364C0BF
:10268000FE01E759FF4F608171818281938120E0D3
:102690003FEF4FE757E40E94190318160CF043C0B0
:1026A000FE01E359FF4F608171818281938120E0B7
:1026B00030E040E251E40E941F02DC01CB018E01B8
:1026C00009591F4FBC01CD010E944900DC01CB011B
:1026D000F801918380831FC0FE01EB59FF4F88EC06
:1026E00090E091838083FE01EB59FF4F80819181BF
:1026F0000197F1F7FE01EB59FF4F91838083DE01D3
:10270000A959BF4FFE01E959FF4F8081918101977F
:1027100011969C938E93FE01E959FF4F8081918120
:102720000097D1F627C08E0109591F4FFE01E759C6
:10273000FF4F60817181828193810E944900DC0199
:10274000CB01F80191838083DE01AD59BF4FFE01BB
:10275000E959FF4F808191818D939C93FE01ED5942
:10276000FF4F808191810197F1F7FE01ED59FF4FF5
:102770009183808381E063E041E00E94C60681E0AE
:1027800064E040E00E94C60681E065E040E00E940F
:10279000C60681E066E040E00E94C606FE01E15AFE
:1027A000FF4F80E090E0A0E0B0E480839183A283BB
:1027B000B3838E01055A1F4FFE01E15AFF4F60811E
:1027C00071818281938120E030E04AEF54E40E94DD
:1027D0001F02DC01CB01F80180839183A283B383C4
:1027E000FE01E55AFF4F608171818281938120E073
:1027F00030E040E85FE30E947903882344F4FE015F
:10280000E75AFF4F81E090E09183808364C0FE012E
:10281000E55AFF4F608171818281938120E03FEF13
:102820004FE757E40E94190318160CF043C0FE014D
:10283000E15AFF4F608171818281938120E030E015
:1028400040E251E40E941F02DC01CB018E01075AD5
:102850001F4FBC01CD010E944900DC01CB01F801F2
:10286000918380831FC0FE01E95AFF4F88EC90E0FE
:1028700091838083FE01E95AFF4F80819181019706
:10288000F1F7FE01E95AFF4F91838083DE01A75AD9
:10289000BF4FFE01E75AFF4F80819181019711964A
:1028A0009C938E93FE01E75AFF4F808191810097A0
:1028B000D1F627C08E01075A1F4FFE01E55AFF4F80
:1028C00060817181828193810E944900DC01CB018A
:1028D000F80191838083DE01AB5ABF4FFE01E75AB6
:1028E000FF4F808191818D939C93FE01EB5AFF4FA6
:1028F000808191810197F1F7FE01EB5AFF4F91839F
:10290000808381E063E041E00E94C60681E064E0EC
:1029100041E00E94C60681E065E040E00E94C606F4
:1029200081E066E040E00E94C606FE01EF5AFF4FDC
:1029300080E090E0A0E0B0E480839183A283B38341
:102940008E01035B1F4FFE01EF5AFF4F60817181C3
:102950008281938120E030E04AEF54E40E941F021C
:10296000DC01CB01F80180839183A283B383FE0154
:10297000E35BFF4F608171818281938120E030E0D1
:1029800040E85FE30E947903882344F4FE01E55B9D
:10299000FF4F81E090E09183808364C0FE01E35BA0
:1029A000FF4F608171818281938120E03FEF4FE78B
:1029B00057E40E94190318160CF043C0FE01EF5AA9
:1029C000FF4F608171818281938120E030E040E29D
:1029D00051E40E941F02DC01CB018E01055B1F4FF9
:1029E000BC01CD010E944900DC01CB01F8019183BB
:1029F00080831FC0FE01E75BFF4F88EC90E091836E
:102A00008083FE01E75BFF4F808191810197F1F7A1
:102A1000FE01E75BFF4F91838083DE01A55BBF4F23
:102A2000FE01E55BFF4F80819181019711969C9398
:102A30008E93FE01E55BFF4F808191810097D1F677
:102A400027C08E01055B1F4FFE01E35BFF4F6081D6
:102A50007181828193810E944900DC01CB01F801E0
:102A600091838083DE01A95BBF4FFE01E55BFF4FD1
:102A7000808191818D939C93FE01E95BFF4F808162
:102A800091810197F1F7FE01E95BFF4F918380830C
:102A900081E063E040E00E94C60681E064E041E03E
:102AA0000E94C60681E065E040E00E94C60681E023
:102AB00066E040E00E94C606FE01ED5BFF4F80E04D
:102AC00090E0A0E0B0E480839183A283B3838E0181
:102AD000015C1F4FFE01ED5BFF4F608171818281C0
:102AE000938120E030E04AEF54E40E941F02DC01B1
:102AF000CB01F80180839183A283B383FE01FF960B
:102B0000608171818281938120E030E040E85FE361
:102B10000E94790388232CF481E090E09EAF8DAF72
:102B200046C0FE01FF96608171818281938120E021
:102B30003FEF4FE757E40E941903181664F5FE01B2
:102B4000ED5BFF4F608171818281938120E030E0F5
:102B500040E251E40E941F02DC01CB01BC01CD0127
:102B60000E944900DC01CB019EAF8DAF0FC088EC05
:102B700090E09CAF8BAF8BAD9CAD0197F1F79CAF14
:102B80008BAF8DAD9EAD01979EAF8DAF8DAD9EADE0
:102B9000009769F716C0FE01FF96608171818281FE
:102BA00093810E944900DC01CB019EAF8DAF8DADBA
:102BB0009EAD9AAF89AF89AD9AAD0197F1F79AAF03
:102BC00089AF81E063E040E00E94C60681E064E0F6
:102BD00041E00E94C60681E065E041E00E94C60631
:102BE00081E066E040E00E94C60680E090E0A0E060
:102BF000B0E48DAB9EABAFABB8AF6DA97EA98FA98A
:102C000098AD20E030E04AEF54E40E941F02DC015E
:102C1000CB0189AB9AABABABBCAB69A97AA98BA949
:102C20009CA920E030E040E85FE30E94790388231C
:102C30002CF481E090E098AB8FA73FC069A97AA9F6
:102C40008BA99CA920E03FEF4FE757E40E941903AE
:102C500018164CF56DA97EA98FA998AD20E030E03B
:102C600040E251E40E941F02DC01CB01BC01CD0116
:102C70000E944900DC01CB0198AB8FA70FC088EC04
:102C800090E09EA78DA78DA59EA50197F1F79EA721
:102C90008DA78FA598A9019798AB8FA78FA598A905
:102CA000009769F714C069A97AA98BA99CA90E9409
:102CB0004900DC01CB0198AB8FA78FA598A99CA7F1
:102CC0008BA78BA59CA50197F1F79CA78BA781E00B
:102CD00063E040E00E94C60681E064E040E00E94BC
:102CE000C60681E065E041E00E94C60681E066E03C
:102CF00040E00E94C60680E090E0A0E0B0E48FA330
:102D000098A7A9A7BAA76FA178A589A59AA520E039
:102D100030E04AEF54E40E941F02DC01CB018BA398
:102D20009CA3ADA3BEA36BA17CA18DA19EA120E01D
:102D300030E040E85FE30E94790388232CF481E0CF
:102D400090E09AA389A33FC06BA17CA18DA19EA115
:102D500020E03FEF4FE757E40E94190318164CF5A7
:102D60006FA178A589A59AA520E030E040E251E462
:102D70000E941F02DC01CB01BC01CD010E94490071
:102D8000DC01CB019AA389A30FC088EC90E098A343
:102D90008F8F8F8D98A10197F1F798A38F8F89A1BD
:102DA0009AA101979AA389A389A19AA1009769F78B
:102DB00014C06BA17CA18DA19EA10E944900DC01E1
:102DC000CB019AA389A389A19AA19E8F8D8F8D8D06
:102DD0009E8D0197F1F79E8F8D8F81E063E040E03B
:102DE0000E94C60681E064E040E00E94C60681E0E1
:102DF00065E041E00E94C60681E066E041E00E9495
:102E0000C60680E090E0A0E0B0E4898F9A8FAB8F97
:102E1000BC8F698D7A8D8B8D9C8D20E030E04AEFE0
:102E200054E40E941F02DC01CB018D8B9E8BAF8B83
:102E3000B88F6D897E898F89988D20E030E040E8D9
:102E40005FE30E94790388232CF481E090E09C8B5F
:102E50008B8B3FC06D897E898F89988D20E03FEFF5
:102E60004FE757E40E94190318164CF5698D7A8DC7
:102E70008B8D9C8D20E030E040E251E40E941F02E7
:102E8000DC01CB01BC01CD010E944900DC01CB017A
:102E90009C8B8B8B0FC088EC90E09A8B898B8989F7
:102EA0009A890197F1F79A8B898B8B899C89019775
:102EB0009C8B8B8B8B899C89009769F714C06D89DB
:102EC0007E898F89988D0E944900DC01CB019C8B03
:102ED0008B8B8B899C89988B8F878F85988901979D
:102EE000F1F7988B8F8781E063E040E00E94C6068F
:102EF00081E064E040E00E94C60681E065E040E0D9
:102F00000E94C60681E066E041E00E94C60680E0BD
:102F100090E0A0E0B0E48B879C87AD87BE876B858F
:102F20007C858D859E8520E030E04AEF54E40E9448
:102F30001F02DC01CB018F839887A987BA876F8135
:102F4000788589859A8520E030E040E85FE30E943B
:102F5000790388232CF481E090E09E838D833FC029
:102F60006F81788589859A8520E03FEF4FE757E4A8
:102F70000E94190318164CF56B857C858D859E85FE
:102F800020E030E040E251E40E941F02DC01CB016E
:102F9000BC01CD010E944900DC01CB019E838D83E1
:102FA0000FC088EC90E09C838B838B819C81019780
:102FB000F1F79C838B838D819E8101979E838D8306
:102FC0008D819E81009769F714C06F81788589850E
:102FD0009A850E944900DC01CB019E838D838D81FF
:102FE0009E819A83898389819A810197F1F79A83D7
:102FF0008983C059DF4F0FB6F894DEBF0FBECDBF37
:10300000CF91DF911F910F9108950F931F93DF933D
:10301000CF93CDB7DEB7C057D0400FB6F894DEBF20
:103020000FBECDBF81E063E040E00E94C60681E0B4
:1030300064E040E00E94C60681E065E040E00E9456
:10304000C60681E066E041E00E94C606FE01E35943
:10305000FF4F80E090E0A0E0B0E480839183A28302
:10306000B3838E0107591F4FFE01E359FF4F608163
:1030700071818281938120E030E04AEF54E40E9424
:103080001F02DC01CB01F80180839183A283B3830B
:10309000FE01E759FF4F608171818281938120E0B9
:1030A00030E040E85FE30E947903882344F4FE01A6
:1030B000E959FF4F81E090E09183808364C0FE0175
:1030C000E759FF4F608171818281938120E03FEF5A
:1030D0004FE757E40E94190318160CF043C0FE0195
:1030E000E359FF4F608171818281938120E030E05C
:1030F00040E251E40E941F02DC01CB018E0109591C
:103100001F4FBC01CD010E944900DC01CB01F80139
:10311000918380831FC0FE01EB59FF4F88EC90E044
:1031200091838083FE01EB59FF4F8081918101974C
:10313000F1F7FE01EB59FF4F91838083DE01A9591E
:10314000BF4FFE01E959FF4F808191810197119690
:103150009C938E93FE01E959FF4F808191810097E6
:10316000D1F627C08E0109591F4FFE01E759FF4FC5
:1031700060817181828193810E944900DC01CB01D1
:10318000F80191838083DE01AD59BF4FFE01E959FB
:10319000FF4F808191818D939C93FE01ED59FF4FEC
:1031A000808191810197F1F7FE01ED59FF4F9183E5
:1031B000808381E063E040E00E94C60681E064E035
:1031C00040E00E94C60681E065E041E00E94C6063C
:1031D00081E066E041E00E94C606FE01E15AFF4F31
:1031E00080E090E0A0E0B0E480839183A283B38389
:1031F0008E01055A1F4FFE01E15AFF4F6081718118
:103200008281938120E030E04AEF54E40E941F0263
:10321000DC01CB01F80180839183A283B383FE019B
:10322000E55AFF4F608171818281938120E030E017
:1032300040E85FE30E947903882344F4FE01E75AE3
:10324000FF4F81E090E09183808364C0FE01E55AE6
:10325000FF4F608171818281938120E03FEF4FE7D2
:1032600057E40E94190318160CF043C0FE01E15AFE
:10327000FF4F608171818281938120E030E040E2E4
:1032800051E40E941F02DC01CB018E01075A1F4F3F
:10329000BC01CD010E944900DC01CB01F801918302
:1032A00080831FC0FE01E95AFF4F88EC90E09183B4
:1032B0008083FE01E95AFF4F808191810197F1F7E8
:1032C000FE01E95AFF4F91838083DE01A75ABF4F69
:1032D000FE01E75AFF4F80819181019711969C93DF
:1032E0008E93FE01E75AFF4F808191810097D1F6BE
:1032F00027C08E01075A1F4FFE01E55AFF4F60811C
:103300007181828193810E944900DC01CB01F80127
:1033100091838083DE01AB5ABF4FFE01E75AFF4F16
:10332000808191818D939C93FE01EB5AFF4F8081A8
:1033300091810197F1F7FE01EB5AFF4F9183808352
:1033400081E063E040E00E94C60681E064E040E086
:103350000E94C60681E065E041E00E94C60681E069
:1033600066E040E00E94C606FE01EF5AFF4F80E093
:1033700090E0A0E0B0E480839183A283B3838E01C8
:10338000035B1F4FFE01EF5AFF4F60817181828105
:10339000938120E030E04AEF54E40E941F02DC01F8
:1033A000CB01F80180839183A283B383FE01E35BA9
:1033B000FF4F608171818281938120E030E040E89D
:1033C0005FE30E947903882344F4FE01E55BFF4F2D
:1033D00081E090E09183808364C0FE01E35BFF4F56
:1033E000608171818281938120E03FEF4FE757E454
:1033F0000E94190318160CF043C0FE01EF5AFF4F4C
:10340000608171818281938120E030E040E251E46B
:103410000E941F02DC01CB018E01055B1F4FBC0126
:10342000CD010E944900DC01CB01F801918380832A
:103430001FC0FE01E75BFF4F88EC90E09183808323
:10344000FE01E75BFF4F808191810197F1F7FE015B
:10345000E75BFF4F91838083DE01A55BBF4FFE01D9
:10346000E55BFF4F80819181019711969C938E932C
:10347000FE01E55BFF4F808191810097D1F627C067
:103480008E01055B1F4FFE01E35BFF4F6081718181
:10349000828193810E944900DC01CB01F801918374
:1034A0008083DE01A95BBF4FFE01E55BFF4F80819A
:1034B00091818D939C93FE01E95BFF4F8081918107
:1034C0000197F1F7FE01E95BFF4F9183808381E073
:1034D00063E040E00E94C60681E064E041E00E94B3
:1034E000C60681E065E041E00E94C60681E066E034
:1034F00040E00E94C606FE01ED5BFF4F80E090E0D9
:10350000A0E0B0E480839183A283B3838E01015C49
:103510001F4FFE01ED5BFF4F6081718182819381BE
:1035200020E030E04AEF54E40E941F02DC01CB01AE
:10353000F80180839183A283B383FE01FF966081AB
:1035400071818281938120E030E040E85FE30E9456
:10355000790388232CF481E090E09EAF8DAF46C0C4
:10356000FE01FF96608171818281938120E03FEFAF
:103570004FE757E40E941903181664F5FE01ED5B4E
:10358000FF4F608171818281938120E030E040E2D1
:1035900051E40E941F02DC01CB01BC01CD010E945D
:1035A0004900DC01CB019EAF8DAF0FC088EC90E0ED
:1035B0009CAF8BAF8BAD9CAD0197F1F79CAF8BAF00
:1035C0008DAD9EAD01979EAF8DAF8DAD9EAD009739
:1035D00069F716C0FE01FF96608171818281938137
:1035E0000E944900DC01CB019EAF8DAF8DAD9EAD39
:1035F0009AAF89AF89AD9AAD0197F1F79AAF89AFCC
:1036000081E063E040E00E94C60681E064E041E0C2
:103610000E94C60681E065E040E00E94C60681E0A7
:1036200066E040E00E94C60680E090E0A0E0B0E4E2
:103630008DAB9EABAFABB8AF6DA97EA98FA998AD8E
:1036400020E030E04AEF54E40E941F02DC01CB018D
:1036500089AB9AABABABBCAB69A97AA98BA99CA986
:1036600020E030E040E85FE30E94790388232CF4F7
:1036700081E090E098AB8FA73FC069A97AA98BA998
:103680009CA920E03FEF4FE757E40E94190318166A
:103690004CF56DA97EA98FA998AD20E030E040E2FD
:1036A00051E40E941F02DC01CB01BC01CD010E944C
:1036B0004900DC01CB0198AB8FA70FC088EC90E0EC
:1036C0009EA78DA78DA59EA50197F1F79EA78DA713
:1036D0008FA598A9019798AB8FA78FA598A9009758
:1036E00069F714C069A97AA98BA99CA90E9449000D
:1036F000DC01CB0198AB8FA78FA598A99CA78BA7BE
:103700008BA59CA50197F1F79CA78BA781E063E0AF
:1037100041E00E94C60681E064E041E00E94C606E6
:1037200081E065E040E00E94C60681E066E040E09E
:103730000E94C60680E090E0A0E0B0E48FA398A7C6
:10374000A9A7BAA76FA178A589A59AA520E030E01E
:103750004AEF54E40E941F02DC01CB018BA39CA31F
:10376000ADA3BEA36BA17CA18DA19EA120E030E002
:1037700040E85FE30E94790388232CF481E090E025
:103780009AA389A33FC06BA17CA18DA19EA120E03B
:103790003FEF4FE757E40E94190318164CF56FA14D
:1037A00078A589A59AA520E030E040E251E40E9486
:1037B0001F02DC01CB01BC01CD010E944900DC01EC
:1037C000CB019AA389A30FC088EC90E098A38F8FB8
:1037D0008F8D98A10197F1F798A38F8F89A19AA156
:1037E00001979AA389A389A19AA1009769F714C0A8
:1037F0006BA17CA18DA19EA10E944900DC01CB019F
:103800009AA389A389A19AA19E8F8D8F8D8D9E8D5C
:103810000197F1F79E8F8D8F81E063E041E00E9478
:10382000C60681E064E040E00E94C60681E065E0F3
:1038300040E00E94C60681E066E040E00E94C606C5
:1038400080E090E0A0E0B0E4898F9A8FAB8FBC8FCE
:10385000698D7A8D8B8D9C8D20E030E04AEF54E4A9
:103860000E941F02DC01CB018D8B9E8BAF8BB88F2A
:103870006D897E898F89988D20E030E040E85FE394
:103880000E94790388232CF481E090E09C8B8B8B41
:103890003FC06D897E898F89988D20E03FEF4FE78B
:1038A00057E40E94190318164CF5698D7A8D8B8D9B
:1038B0009C8D20E030E040E251E40E941F02DC01D8
:1038C000CB01BC01CD010E944900DC01CB019C8BE6
:1038D0008B8B0FC088EC90E09A8B898B89899A89B1
:1038E0000197F1F79A8B898B8B899C8901979C8B27
:1038F0008B8B8B899C89009769F714C06D897E89B1
:103900008F89988D0E944900DC01CB019C8B8B8BA9
:103910008B899C89988B8F878F8598890197F1F780
:10392000988B8F8781E063E041E00E94C60681E0CA
:1039300064E040E00E94C60681E065E040E00E944D
:10394000C60681E066E041E00E94C60680E090E0A5
:10395000A0E0B0E48B879C87AD87BE876B857C85B4
:103960008D859E8520E030E04AEF54E40E941F02DE
:10397000DC01CB018F839887A987BA876F8178850F
:1039800089859A8520E030E040E85FE30E94790372
:1039900088232CF481E090E09E838D833FC06F816B
:1039A000788589859A8520E03FEF4FE757E40E94AC
:1039B000190318164CF56B857C858D859E8520E056
:1039C00030E040E251E40E941F02DC01CB01BC0167
:1039D000CD010E944900DC01CB019E838D830FC085
:1039E00088EC90E09C838B838B819C810197F1F71D
:1039F0009C838B838D819E8101979E838D838D8196
:103A00009E81009769F714C06F81788589859A85B2
:103A10000E944900DC01CB019E838D838D819E81B4
:103A20009A83898389819A810197F1F79A8389839F
:103A3000C059DF4F0FB6F894DEBF0FBECDBFCF9198
:103A4000DF911F910F910895DF93CF93CDB7DEB72C
:103A500061970FB6F894DEBF0FBECDBF6D877E872E
:103A60008F87988B498B8D859E85AF85B889072E6A
:103A70007BE0880F991FAA1FBB1F7A95D1F7702D85
:103A800028E631E040E050E0BC01CD010E94BE26B6
:103A9000DA01C90189879A87AB87BC8789859A85AE
:103AA000AB85BC85B695A79597958795B695A7954F
:103AB000979587958D839E83AF83B887898988235F
:103AC00001F519821A821B821C820DC00E94900E81
:103AD00089819A81AB81BC810196A11DB11D898329
:103AE0009A83AB83BC8329813A814B815C818D8130
:103AF0009E81AF81B885281739074A075B0730F3E5
:103B00001FC019821A821B821C820DC00E94BB102A
:103B100089819A81AB81BC810196A11DB11D8983E8
:103B20009A83AB83BC8329813A814B815C818D81EF
:103B30009E81AF81B885281739074A075B0730F3A4
:103B400061960FB6F894DEBF0FBECDBFCF91DF9167
:103B50000895DF93CF9300D0CDB7DEB783E390E035
:103B60009A838983E9E2F0E089818083E0E4F0E0F0
:103B700089819A81892F99278083AAE2B0E0EAE2BD
:103B8000F0E080818B7F8C93E0E4F0E086E8808336
:103B9000AAE2B0E0EAE2F0E0808188608C93AAE2D9
:103BA000B0E0EAE2F0E0808180618C930F900F90AA
:103BB000CF91DF910895DF93CF930F92CDB7DEB70A
:103BC0008983EBE2F0E08081829586958770882F6B
:103BD00090E0817090700097A1F3ECE2F0E08981B1
:103BE0008083EBE2F0E08081829586958770882F54
:103BF00090E0817090700097A1F3ABE2B0E0EBE24F
:103C0000F0E0808180648C930F90CF91DF910895D4
:103C1000DF93CF9300D000D00F92CDB7DEB78D8366
:103C200019821A821B821C8217C089819A81AB81FA
:103C3000BC810196A11DB11D89839A83AB83BC838E
:103C400089819A81AB81BC81883823E1920720E089
:103C5000A20720E0B20761F0EBE2F0E080818295FC
:103C600086958770882F90E0817090700097E9F2B8
:103C700089819A81AB81BC81883823E1920720E059
:103C8000A20720E0B20799F119821A821B821C82D6
:103C9000ECE2F0E08D81808317C089819A81AB814D
:103CA000BC810196A11DB11D89839A83AB83BC831E
:103CB00089819A81AB81BC81883823E1920720E019
:103CC000A20720E0B20761F0EBE2F0E0808182958C
:103CD00086958770882F90E0817090700097E9F248
:103CE000ABE2B0E0EBE2F0E0808180648C930F9077
:103CF0000F900F900F900F90CF91DF910895DF9369
:103D0000CF9300D0CDB7DEB79A8389830BC0E9810A
:103D1000FA81208189819A8101969A838983822FF1
:103D20000E94081EE981FA818081882381F70F9023
:103D30000F90CF91DF910895DF93CF930F92CDB77E
:103D4000DEB78983EBE2F0E080818295869587700B
:103D5000882F90E081709070009721F4ECE2F0E001
:103D6000898180830F90CF91DF910895DF93CF9366
:103D7000CDB7DEB7EBE2F0E080818823DCF7ECE240
:103D8000F0E08081CF91DF910895DF93CF93CDB79D
:103D9000DEB7ECE2F0E08081CF91DF910895DF9310
:103DA000CF9300D000D00F92CDB7DEB78FEF8D83C9
:103DB00019821A821B821C8217C089819A81AB8169
:103DC000BC810196A11DB11D89839A83AB83BC83FD
:103DD00089819A81AB81BC81883823E1920720E0F8
:103DE000A20720E0B20729F0EBE2F0E0808188230F
:103DF00024F789819A81AB81BC81883823E19207BD
:103E000020E0A20720E0B20721F0ECE2F0E08081A0
:103E10008D838D810F900F900F900F900F90CF9109
:103E2000DF910895DF93CF9300D00F92CDB7DEB727
:103E300089837B836A838981833080F48A819B8133
:103E4000009761F08981882F90E0880F991FFC010D
:103E5000E458FE4F8A819B81918380830F900F905D
:103E60000F90CF91DF9108951F920F920FB60F928E
:103E700011242F933F934F935F936F937F938F936F
:103E80009F93AF93BF93EF93FF93DF93CF93CDB700
:103E9000DEB780917C0190917D01009729F0E0913F
:103EA0007C01F0917D010995CF91DF91FF91EF9118
:103EB000BF91AF919F918F917F916F915F914F9142
:103EC0003F912F910F900FBE0F901F9018951F924A
:103ED0000F920FB60F9211242F933F934F935F933E
:103EE0006F937F938F939F93AF93BF93EF93FF93C2
:103EF000DF93CF93CDB7DEB780917E0190917F01A4
:103F0000009729F0E0917E01F0917F010995CF9112
:103F1000DF91FF91EF91BF91AF919F918F917F9131
:103F20006F915F914F913F912F910F900FBE0F9026
:103F30001F9018951F920F920FB60F9211242F9376
:103F40003F934F935F936F937F938F939F93AF9321
:103F5000BF93EF93FF93DF93CF93CDB7DEB78091FD
:103F6000800190918101009729F0E0918001F0910A
:103F700081010995CF91DF91FF91EF91BF91AF91B1
:103F80009F918F917F916F915F914F913F912F9171
:103F90000F900FBE0F901F9018950F931F93DF93F4
:103FA000CF93CDB7DEB7CA58D0400FB6F894DEBF76
:103FB0000FBECDBF0E9477090E94A91D0E94D80A9A
:103FC000FE01E857FF4F108256C083E090E00E9448
:103FD0001727FE01EE57FF4F9183808385E090E025
:103FE0000E941727FE01EE57FF4F0190F081E02D50
:103FF00091838083FE01E857FF4F8081882F90E0F6
:10400000880F991FFC01E859FE4F80819181FE01C4
:10401000EE57FF4F0190F081E02D91838083FE01E8
:10402000E857FF4F8081882F90E0FC01E25AFE4F55
:104030008081FE01EE57FF4F0190F081E02D8283D9
:10404000FE01E857FF4F8081882F90E0880F991F6D
:10405000DC01AE57BE4FFE01EE57FF4F80819181CC
:104060008D939C93DE01A857BF4FFE01E857FF4F89
:1040700080818F5F8C93FE01E857FF4F80818A30EB
:1040800008F4A3CFFE01EA57FF4F8FEF8083FE01B4
:10409000EB57FF4F1082FE01EC57FF4F10820E943A
:1040A0004A0D8CE990E00E947F1E86EB90E061E073
:1040B00041E00E94170EFE01E558FF4F80E090E0BE
:1040C000AAEFB4E480839183A283B3838E0109585D
:1040D0001F4FFE01E558FF4F6081718182819381FE
:1040E00020E030E04AEF54E40E941F02DC01CB01E3
:1040F000F80180839183A283B383FE01E958FF4FC7
:10410000608171818281938120E030E040E85FE34B
:104110000E947903882344F4FE01EB58FF4F81E0AD
:1041200090E09183808364C0FE01E958FF4F608175
:1041300071818281938120E03FEF4FE757E40E9435
:10414000190318160CF043C0FE01E558FF4F6081BB
:1041500071818281938120E030E040E251E40E944D
:104160001F02DC01CB018E010B581F4FBC01CD019A
:104170000E944900DC01CB01F801918380831FC0BC
:10418000FE01ED58FF4F88EC90E091838083FE01A3
:10419000ED58FF4F808191810197F1F7FE01ED58B5
:1041A000FF4F91838083DE01AB58BF4FFE01EB5878
:1041B000FF4F80819181019711969C938E93FE0110
:1041C000EB58FF4F808191810097D1F627C08E0177
:1041D0000B581F4FFE01E958FF4F608171818281AA
:1041E00093810E944900DC01CB01F8019183808317
:1041F000DE01AF58BF4FFE01EB58FF4F8081918128
:104200008D939C93FE01EF58FF4F80819181019720
:10421000F1F7FE01EF58FF4F9183808383EC90E02C
:1042200062E041E00E94170EFE01E359FF4F80E07B
:1042300090E0AAEFB4E480839183A283B3838E01DC
:1042400007591F4FFE01E359FF4F60817181828141
:10425000938120E030E04AEF54E40E941F02DC0129
:10426000CB01F80180839183A283B383FE01E759D8
:10427000FF4F608171818281938120E030E040E8CE
:104280005FE30E947903882344F4FE01E959FF4F5C
:1042900081E090E09183808364C0FE01E759FF4F85
:1042A000608171818281938120E03FEF4FE757E485
:1042B0000E94190318160CF043C0FE01E359FF4F8A
:1042C000608171818281938120E030E040E251E49D
:1042D0000E941F02DC01CB018E0109591F4FBC0156
:1042E000CD010E944900DC01CB01F801918380835C
:1042F0001FC0FE01EB59FF4F88EC90E09183808353
:10430000FE01EB59FF4F808191810197F1F7FE018A
:10431000EB59FF4F91838083DE01A959BF4FFE0106
:10432000E959FF4F80819181019711969C938E935B
:10433000FE01E959FF4F808191810097D1F627C096
:104340008E0109591F4FFE01E759FF4F60817181AE
:10435000828193810E944900DC01CB01F8019183A5
:104360008083DE01AD59BF4FFE01E959FF4F8081C7
:1043700091818D939C93FE01ED59FF4F8081918136
:104380000197F1F7FE01ED59FF4F918380830E9461
:104390004A0D0FC00E94B61EFE01EA57FF4F8083F0
:1043A000FE01EA57FF4F80810E94DB1D8AE00E94D8
:1043B000DB1DFE01EA57FF4F8081803358F3FE0179
:1043C000EA57FF4F80818A3328F780ED90E00E9402
:1043D0007F1EDE01AA57BF4FFE01EA57FF4F8081C3
:1043E00080538C93FE01EF57FF4F84E68083FE01DC
:1043F000E058FF4F108283EE90E061E041E00E94C0
:10440000170E82E061E00E94EF0DFE01E158FF4FC0
:10441000108246C00E94B61EFE01EB57FF4F8083FC
:10442000FE01EB57FF4F80810E94DB1DFE01EB5721
:10443000FF4F80810E943A0AFE01EF57FF4F8081B3
:10444000282F30E0FE01EB57FF4F8081882F90E04E
:10445000C097AC01249FC001259F900D349F900D03
:104460001124982FDE01A058BF4FFE01E058FF4FE6
:104470008081890F8C93DE01AF57BF4FFE01EF574C
:10448000FF4F80819AE0692F0E94B2268C93DE0153
:10449000A158BF4FFE01E158FF4F80818F5F8C9381
:1044A000FE01E158FF4F8081833008F4B3CF84EFE1
:1044B00090E00E947F1EFE01EA57FF4F8081882F07
:1044C00090E0880F991FFC01EE57FE4F0190F0819C
:1044D000E02D9281FE01E058FF4F8081981709F08E
:1044E000ADC287EF90E061E041E00E94170EFE014F
:1044F000EA57FF4F8081805D0E943A0AFE01E15A2F
:10450000FF4F80E090E0AAEFB4E480839183A28320
:10451000B3838E01055A1F4FFE01E15AFF4F6081A0
:1045200071818281938120E030E04AEF54E40E945F
:104530001F02DC01CB01F80180839183A283B38346
:10454000FE01E55AFF4F608171818281938120E0F5
:1045500030E040E85FE30E947903882344F4FE01E1
:10456000E75AFF4F81E090E09183808364C0FE01B1
:10457000E55AFF4F608171818281938120E03FEF96
:104580004FE757E40E94190318160CF043C0FE01D0
:10459000E15AFF4F608171818281938120E030E098
:1045A00040E251E40E941F02DC01CB018E01075A58
:1045B0001F4FBC01CD010E944900DC01CB01F80175
:1045C000918380831FC0FE01E95AFF4F88EC90E081
:1045D00091838083FE01E95AFF4F80819181019789
:1045E000F1F7FE01E95AFF4F91838083DE01A75A5C
:1045F000BF4FFE01E75AFF4F8081918101971196CD
:104600009C938E93FE01E75AFF4F80819181009722
:10461000D1F627C08E01075A1F4FFE01E55AFF4F02
:1046200060817181828193810E944900DC01CB010C
:10463000F80191838083DE01AB5ABF4FFE01E75A38
:10464000FF4F808191818D939C93FE01EB5AFF4F28
:10465000808191810197F1F7FE01EB5AFF4F918321
:10466000808386E091E061E041E00E94170EFE0148
:10467000EF5AFF4F80E090E0AAE7B4E48083918393
:10468000A283B3838E01035B1F4FFE01EF5AFF4FDE
:10469000608171818281938120E030E04AEF54E4AF
:1046A0000E941F02DC01CB01F80180839183A28369
:1046B000B383FE01E35BFF4F60817181828193814F
:1046C00020E030E040E85FE30E947903882344F46F
:1046D000FE01E55BFF4F81E090E09183808364C041
:1046E000FE01E35BFF4F608171818281938120E055
:1046F0003FEF4FE757E40E94190318160CF043C030
:10470000FE01EF5AFF4F608171818281938120E029
:1047100030E040E251E40E941F02DC01CB018E0137
:10472000055B1F4FBC01CD010E944900DC01CB019C
:10473000F801918380831FC0FE01E75BFF4F88EC87
:1047400090E091838083FE01E75BFF4F8081918140
:104750000197F1F7FE01E75BFF4F91838083DE0154
:10476000A55BBF4FFE01E55BFF4F80819181019703
:1047700011969C938E93FE01E55BFF4F80819181A2
:104780000097D1F627C08E01055B1F4FFE01E35B4A
:10479000FF4F60817181828193810E944900DC0119
:1047A000CB01F80191838083DE01A95BBF4FFE013D
:1047B000E55BFF4F808191818D939C93FE01E95BC6
:1047C000FF4F808191810197F1F7FE01E95BFF4F77
:1047D00091838083FE01EA57FF4F8081882F90E00C
:1047E000880F991FFC01EE57FE4F0190F081E02DDC
:1047F0008081918162E041E00E94170EFE01ED5B35
:10480000FF4F80E090E0AAE7B4E480839183A28325
:10481000B3838E01015C1F4FFE01ED5BFF4F608192
:1048200071818281938120E030E04AEF54E40E945C
:104830001F02DC01CB01F80180839183A283B38343
:10484000FE01FF96608171818281938120E030E0DA
:1048500040E85FE30E94790388232CF481E090E034
:104860009EAF8DAF46C0FE01FF966081718182814F
:10487000938120E03FEF4FE757E40E941903181699
:1048800064F5FE01ED5BFF4F608171818281938150
:1048900020E030E040E251E40E941F02DC01CB0145
:1048A000BC01CD010E944900DC01CB019EAF8DAF60
:1048B0000FC088EC90E09CAF8BAF8BAD9CAD0197A7
:1048C000F1F79CAF8BAF8DAD9EAD01979EAF8DAFD5
:1048D0008DAD9EAD009769F716C0FE01FF96608111
:1048E0007181828193810E944900DC01CB019EAFDE
:1048F0008DAF8DAD9EAD9AAF89AF89AD9AAD019761
:10490000F1F79AAF89AF0E94780E8FE091E061E0F5
:1049100041E00E94170E6AE570E080E090E040E020
:104920000E94241D80E090E0AAE7B5E48DAB9EAB29
:10493000AFABB8AF6DA97EA98FA998AD20E030E0EC
:104940004AEF54E40E941F02DC01CB0189AB9AAB11
:10495000ABABBCAB69A97AA98BA99CA920E030E0DC
:1049600040E85FE30E94790388232CF481E090E023
:1049700098AB8FA73FC069A97AA98BA99CA920E011
:104980003FEF4FE757E40E94190318164CF56DA945
:104990007EA98FA998AD20E030E040E251E40E946A
:1049A0001F02DC01CB01BC01CD010E944900DC01EA
:1049B000CB0198AB8FA70FC088EC90E09EA78DA786
:1049C0008DA59EA50197F1F79EA78DA78FA598A904
:1049D000019798AB8FA78FA598A9009769F714C086
:1049E00069A97AA98BA99CA90E944900DC01CB0185
:1049F00098AB8FA78FA598A99CA78BA78BA59CA5E3
:104A00000197F1F79CA78BA78CE191E061E041E071
:104A10000E94170E0E94840E6AE570E080E090E02C
:104A200041E00E94241D0E94320E0E944A0DC75789
:104A3000DF4F19821882C958D04082C1FE01EC575D
:104A4000FF4F8081823009F0F9C00E94550E89E243
:104A500091E061E041E00E94170E80E090E0AAEF53
:104A6000B4E48FA398A7A9A7BAA76FA178A589A531
:104A70009AA520E030E04AEF54E40E941F02DC01D6
:104A8000CB018BA39CA3ADA3BEA36BA17CA18DA1E5
:104A90009EA120E030E040E85FE30E947903882394
:104AA0002CF481E090E09AA389A33FC06BA17CA184
:104AB0008DA19EA120E03FEF4FE757E40E9419032C
:104AC00018164CF56FA178A589A59AA520E030E0CD
:104AD00040E251E40E941F02DC01CB01BC01CD0188
:104AE0000E944900DC01CB019AA389A30FC088EC86
:104AF00090E098A38F8F8F8D98A10197F1F798A3DD
:104B00008F8F89A19AA101979AA389A389A19AA1BC
:104B1000009769F714C06BA17CA18DA19EA10E9492
:104B20004900DC01CB019AA389A389A19AA19E8F98
:104B30008D8F8D8D9E8D0197F1F79E8F8D8F87E3E1
:104B400091E061E041E00E94170E80E090E0AAE76A
:104B5000B4E4898F9A8FAB8FBC8F698D7A8D8B8DE2
:104B60009C8D20E030E04AEF54E40E941F02DC01FB
:104B7000CB018D8B9E8BAF8BB88F6D897E898F8992
:104B8000988D20E030E040E85FE30E9479038823BD
:104B90002CF481E090E09C8B8B8B3FC06D897E89EB
:104BA0008F89988D20E03FEF4FE757E40E9419036B
:104BB00018164CF5698D7A8D8B8D9C8D20E030E038
:104BC00040E251E40E941F02DC01CB01BC01CD0197
:104BD0000E944900DC01CB019C8B8B8B0FC088ECC1
:104BE00090E09A8B898B89899A890197F1F79A8B42
:104BF000898B8B899C8901979C8B8B8B8B899C895A
:104C0000009769F714C06D897E898F89988D0E94FD
:104C10004900DC01CB019C8B8B8B8B899C89988B09
:104C20008F878F8598890197F1F7988B8F87C75762
:104C3000DF4F19821882C958D04082C086E491E0C3
:104C400061E041E00E94170EDE01AC57BF4FFE014C
:104C5000EC57FF4F80818F5F8C9380E090E0AAEF4C
:104C6000B4E48B879C87AD87BE876B857C858D85FB
:104C70009E8520E030E04AEF54E40E941F02DC01F0
:104C8000CB018F839887A987BA876F8178858985BB
:104C90009A8520E030E040E85FE30E9479038823B2
:104CA0002CF481E090E09E838D833FC06F817885F6
:104CB00089859A8520E03FEF4FE757E40E9419036A
:104CC00018164CF56B857C858D859E8520E030E03F
:104CD00040E251E40E941F02DC01CB01BC01CD0186
:104CE0000E944900DC01CB019E838D830FC088ECBC
:104CF00090E09C838B838B819C810197F1F79C834F
:104D00008B838D819E8101979E838D838D819E8172
:104D1000009769F767CB6F81788589859A850E94AE
:104D20004900DC01CB019E838D838D819E819A8316
:104D3000898389819A810197F1F79A83898352CB7C
:104D4000C757DF4F88819981C958D040C657DF4F78
:104D50000FB6F894DEBF0FBECDBFCF91DF911F918C
:104D60000F910895991B79E004C0991F961708F0D8
:104D7000961B881F7A95C9F780950895A1E21A2E8F
:104D8000AA1BBB1BFD010DC0AA1FBB1FEE1FFF1FEF
:104D9000A217B307E407F50720F0A21BB30BE40B3F
:104DA000F50B661F771F881F991F1A9469F7609586
:104DB0007095809590959B01AC01BD01CF01089540
:104DC0002F923F924F925F926F927F928F929F921B
:104DD000AF92BF92CF92DF92EF92FF920F931F9309
:104DE000CF93DF93CDB7DEB7CA1BDB0B0FB6F894BA
:104DF000DEBF0FBECDBF09942A88398848885F84FA
:104E00006E847D848C849B84AA84B984C884DF806A
:104E1000EE80FD800C811B81AA81B981CE0FD11D4E
:104E20000FB6F894DEBF0FBECDBFED010895CF934E
:104E3000DF93BC018230910510F462E070E0A09134
:104E40009801B0919901ED01E0E0F0E040E050E020
:104E500021C0888199818617970769F48A819B818F
:104E6000309719F09383828304C0909399018093C3
:104E70009801FE0134C06817790738F441155105CF
:104E800019F08417950708F4AC01FE018A819B8113
:104E90009C01E9012097E9F641155105A9F1CA01E4
:104EA000861B970B049708F4BA01E0E0F0E02AC0F3
:104EB0008D919C91119784179507F9F464177507E4
:104EC00081F412968D919C911397309719F09383EA
:104ED000828304C09093990180939801FD013296DA
:104EE0004FC0CA01861B970BFD01E80FF91F6193A4
:104EF000719302978D939C9343C0FD0182819381AE
:104F00009C01D9011097A1F680919601909197018B
:104F1000892B41F480915A0190915B019093970104
:104F20008093960140915C0150915D0141155105BE
:104F300041F44DB75EB78091580190915901481BDB
:104F4000590B209196013091970124173507B0F441
:104F5000CA01821B930B8617970780F0AB014E5F47
:104F60005F4F8417950750F0420F531F50939701DE
:104F700040939601F9016193719302C0E0E0F0E083
:104F8000CF01DF91CF910895CF93DF93009709F47C
:104F900050C0EC0122971B821A82A0919801B09117
:104FA0009901109709F140E050E0AC17BD0708F1F6
:104FB000BB83AA83FE0121913191E20FF31FAE174B
:104FC000BF0779F48D919C911197280F391F2E5F9F
:104FD0003F4F3983288312968D919C9113979B8321
:104FE0008A834115510571F4D0939901C0939801BA
:104FF00020C012968D919C911397AD01009711F0EE
:10500000DC01D3CFFA01D383C28321913191E20F26
:10501000F31FCE17DF0769F488819981280F391FA4
:105020002E5F3F4FFA01318320838A819B819383D6
:0C5030008283DF91CF910895F894FFCFA8
:10503C0041484D45440053414C45480053414C4177
:10504C004800524147414200484F53414D00534F95
:10505C00424859004E4144494E005955534546006B
:10506C004F4D4E494100414D49524100456E7465CA
:10507C0072204170706172746D656E74204E756D26
:10508C006265720D0A00506C6561736520456E7423
:10509C00657200486F757365204E756D62657200A0
:1050AC000D0A456E7465722050617373776F72646C
:1050BC000D0A00456E7465722050617373776F72C0
:1050CC00643A20000D0A00486F757365204E756DAB
:1050DC006265723A200057454C434F4D4520004FB6
:1050EC0070656E696E6720446F6F7200436C6F73EE
:1050FC00696E6720446F6F72004163636573732040
:10510C0044656E6965640051554954494E472053B6
:10511C00797374656D00496E636F727265637400A8
:10512C00000000000000000020009A0100006465EF
:10513C00666768696A6B6C6D600066006C00720073
:0C514C0078007E0084008A00900096002D
:00000001FF
